{
  "_format": "hh3-artifact-1",
  "contractName": "MillionaireComparison",
  "sourceName": "contracts/coti/MillionaireComparison.sol",
  "abi": [
    {
      "inputs": [
        {
          "internalType": "address",
          "name": "alice",
          "type": "address"
        },
        {
          "internalType": "address",
          "name": "bob",
          "type": "address"
        }
      ],
      "stateMutability": "nonpayable",
      "type": "constructor"
    },
    {
      "anonymous": false,
      "inputs": [
        {
          "indexed": true,
          "internalType": "address",
          "name": "requester",
          "type": "address"
        }
      ],
      "name": "ComparisonCompleted",
      "type": "event"
    },
    {
      "anonymous": false,
      "inputs": [
        {
          "indexed": true,
          "internalType": "address",
          "name": "user",
          "type": "address"
        },
        {
          "indexed": false,
          "internalType": "string",
          "name": "role",
          "type": "string"
        }
      ],
      "name": "WealthSubmitted",
      "type": "event"
    },
    {
      "inputs": [],
      "name": "areBothWealthsSet",
      "outputs": [
        {
          "internalType": "bool",
          "name": "",
          "type": "bool"
        }
      ],
      "stateMutability": "view",
      "type": "function"
    },
    {
      "inputs": [],
      "name": "compareWealth",
      "outputs": [],
      "stateMutability": "nonpayable",
      "type": "function"
    },
    {
      "inputs": [],
      "name": "getAliceAddress",
      "outputs": [
        {
          "internalType": "address",
          "name": "",
          "type": "address"
        }
      ],
      "stateMutability": "view",
      "type": "function"
    },
    {
      "inputs": [],
      "name": "getAliceResult",
      "outputs": [
        {
          "internalType": "ctBool",
          "name": "",
          "type": "uint256"
        }
      ],
      "stateMutability": "view",
      "type": "function"
    },
    {
      "inputs": [],
      "name": "getAliceWealth",
      "outputs": [
        {
          "internalType": "ctUint64",
          "name": "",
          "type": "uint256"
        }
      ],
      "stateMutability": "view",
      "type": "function"
    },
    {
      "inputs": [],
      "name": "getBobAddress",
      "outputs": [
        {
          "internalType": "address",
          "name": "",
          "type": "address"
        }
      ],
      "stateMutability": "view",
      "type": "function"
    },
    {
      "inputs": [],
      "name": "getBobResult",
      "outputs": [
        {
          "internalType": "ctBool",
          "name": "",
          "type": "uint256"
        }
      ],
      "stateMutability": "view",
      "type": "function"
    },
    {
      "inputs": [],
      "name": "getBobWealth",
      "outputs": [
        {
          "internalType": "ctUint64",
          "name": "",
          "type": "uint256"
        }
      ],
      "stateMutability": "view",
      "type": "function"
    },
    {
      "inputs": [],
      "name": "isAliceWealthSet",
      "outputs": [
        {
          "internalType": "bool",
          "name": "",
          "type": "bool"
        }
      ],
      "stateMutability": "view",
      "type": "function"
    },
    {
      "inputs": [],
      "name": "isBobWealthSet",
      "outputs": [
        {
          "internalType": "bool",
          "name": "",
          "type": "bool"
        }
      ],
      "stateMutability": "view",
      "type": "function"
    },
    {
      "inputs": [],
      "name": "reset",
      "outputs": [],
      "stateMutability": "nonpayable",
      "type": "function"
    },
    {
      "inputs": [
        {
          "components": [
            {
              "internalType": "ctUint64",
              "name": "ciphertext",
              "type": "uint256"
            },
            {
              "internalType": "bytes",
              "name": "signature",
              "type": "bytes"
            }
          ],
          "internalType": "struct itUint64",
          "name": "wealth",
          "type": "tuple"
        }
      ],
      "name": "setAliceWealth",
      "outputs": [],
      "stateMutability": "nonpayable",
      "type": "function"
    },
    {
      "inputs": [
        {
          "components": [
            {
              "internalType": "ctUint64",
              "name": "ciphertext",
              "type": "uint256"
            },
            {
              "internalType": "bytes",
              "name": "signature",
              "type": "bytes"
            }
          ],
          "internalType": "struct itUint64",
          "name": "wealth",
          "type": "tuple"
        }
      ],
      "name": "setBobWealth",
      "outputs": [],
      "stateMutability": "nonpayable",
      "type": "function"
    }
  ],
  "bytecode": "0x608060405234801561001057600080fd5b50604051610db8380380610db883398101604081905261002f9161014d565b6001600160a01b0382161580159061004f57506001600160a01b03811615155b6100945760405162461bcd60e51b8152602060048201526011602482015270496e76616c69642061646472657373657360781b60448201526064015b60405180910390fd5b806001600160a01b0316826001600160a01b0316036100f55760405162461bcd60e51b815260206004820152601f60248201527f416c69636520616e6420426f62206d75737420626520646966666572656e7400604482015260640161008b565b600980546001600160a01b039384166001600160a01b031991821617909155600a80549290931691161790556004805461ffff19169055610180565b80516001600160a01b038116811461014857600080fd5b919050565b6000806040838503121561016057600080fd5b61016983610131565b915061017760208401610131565b90509250929050565b610c298061018f6000396000f3fe608060405234801561001057600080fd5b50600436106100cf5760003560e01c80633f868b0f1161008c578063d826f88f11610066578063d826f88f1461017f578063de2da44e14610187578063e304b0b41461018f578063ec2015e9146101a057600080fd5b80633f868b0f1461013f57806388f6d446146101645780639b4cba1a1461017757600080fd5b80630937b729146100d45780630967e31b146100e9578063180bd27a146100f15780631bc1c0331461010c5780633232bf4f1461012457806338bc585014610134575b600080fd5b6100e76100e2366004610a11565b6101a8565b005b6100e76102f8565b6100f961041a565b6040519081526020015b60405180910390f35b61011461047e565b6040519015158152602001610103565b600454610100900460ff16610114565b60045460ff16610114565b6009546001600160a01b03165b6040516001600160a01b039091168152602001610103565b6100e7610172366004610a11565b61049f565b6100f96105dc565b6100e7610638565b6100f96106a9565b600a546001600160a01b031661014c565b6100f961070a565b6009546001600160a01b031633146102075760405162461bcd60e51b815260206004820152601d60248201527f4f6e6c7920416c6963652063616e2073657420686572207765616c746800000060448201526064015b60405180910390fd5b60045460ff161561025a5760405162461bcd60e51b815260206004820152601a60248201527f416c6963652773207765616c746820616c72656164792073657400000000000060448201526064016101fe565b600061026d61026883610abc565b61076e565b6009549091506102879082906001600160a01b03166107eb565b80516000556020015160019081556004805460ff1916909117905560405133907ffb1a376c2bda8655471ab9e3afbeda978d852b63ad15d46aec33be3ab6e8f71d906102ec90602080825260059082015264416c69636560d81b604082015260600190565b60405180910390a25050565b60045460ff1680156103115750600454610100900460ff165b6103715760405162461bcd60e51b815260206004820152602b60248201527f426f74682070617274696573206d757374207375626d6974207468656972207760448201526a19585b1d1a08199a5c9cdd60aa1b60648201526084016101fe565b600061038160006001015461081f565b9050600061039360026001015461081f565b905060006103a18383610861565b6009549091506103bb9082906001600160a01b03166108f7565b805160055560200151600655600a546103de9082906001600160a01b03166108f7565b80516007556020015160085560405133907f076c9d58bbafcd9b0dc4e397235484f263f6d2f4f36364de9b1a8126da472b5490600090a2505050565b6009546000906001600160a01b031633146104775760405162461bcd60e51b815260206004820152601e60248201527f4f6e6c7920416c6963652063616e20766965772068657220726573756c74000060448201526064016101fe565b5060065490565b60045460009060ff16801561049a5750600454610100900460ff165b905090565b600a546001600160a01b031633146104f95760405162461bcd60e51b815260206004820152601b60248201527f4f6e6c7920426f622063616e2073657420686973207765616c7468000000000060448201526064016101fe565b600454610100900460ff16156105515760405162461bcd60e51b815260206004820152601860248201527f426f622773207765616c746820616c726561647920736574000000000000000060448201526064016101fe565b600061055f61026883610abc565b600a549091506105799082906001600160a01b03166107eb565b8051600255602001516003556004805461ff00191661010017905560405133907ffb1a376c2bda8655471ab9e3afbeda978d852b63ad15d46aec33be3ab6e8f71d906102ec906020808252600390820152622137b160e91b604082015260600190565b60045460009060ff166106315760405162461bcd60e51b815260206004820152601a60248201527f416c6963652773207765616c7468206e6f74207365742079657400000000000060448201526064016101fe565b5060005490565b6009546001600160a01b0316331461069c5760405162461bcd60e51b815260206004820152602160248201527f4f6e6c7920416c6963652063616e2072657365742074686520636f6e747261636044820152601d60fa1b60648201526084016101fe565b6004805461ffff19169055565b600454600090610100900460ff166107035760405162461bcd60e51b815260206004820152601860248201527f426f622773207765616c7468206e6f742073657420796574000000000000000060448201526064016101fe565b5060025490565b600a546000906001600160a01b031633146107675760405162461bcd60e51b815260206004820152601c60248201527f4f6e6c7920426f622063616e20766965772068697320726573756c740000000060448201526064016101fe565b5060085490565b80516020820151604051630e4f36e160e41b815260009260649263e4f36e10926107a292600160fa1b929091600401610b77565b6020604051808303816000875af11580156107c1573d6000803e3d6000fd5b505050506040513d601f19601f820116820180604052508101906107e59190610bda565b92915050565b604080518082019091526000808252602082015261080883610920565b81526108148383610930565b602082015292915050565b6000606463d2c135e560045b60f81b846040518363ffffffff1660e01b81526004016107a29291906001600160f81b0319929092168252602082015260400190565b60006064636d82e45e61087660048085610996565b6040516001600160e01b031960e084901b1681526001600160e81b0319909116600482015260248101869052604481018590526064015b6020604051808303816000875af11580156108cc573d6000803e3d6000fd5b505050506040513d601f19601f820116820180604052508101906108f09190610bda565b9392505050565b6040805180820190915260008082526020820152610914836109f3565b81526108148383610a02565b6000606463c50c9c02600461082b565b60006064633c6f0e6860045b60f81b8585604051602001610969919060609190911b6bffffffffffffffffffffffff1916815260140190565b6040516020818303038152906040526040518463ffffffff1660e01b81526004016108ad93929190610b77565b60008160028111156109aa576109aa610b61565b60ff1660088460048111156109c1576109c1610b61565b61ffff16901b61ffff1660108660048111156109df576109df610b61565b62ffffff16901b171760e81b949350505050565b6000606463c50c9c028261082b565b60006064633c6f0e688261093c565b600060208284031215610a2357600080fd5b813567ffffffffffffffff811115610a3a57600080fd5b8201604081850312156108f057600080fd5b634e487b7160e01b600052604160045260246000fd5b6040805190810167ffffffffffffffff81118282101715610a8557610a85610a4c565b60405290565b604051601f8201601f1916810167ffffffffffffffff81118282101715610ab457610ab4610a4c565b604052919050565b600060408236031215610ace57600080fd5b610ad6610a62565b8235815260208084013567ffffffffffffffff80821115610af657600080fd5b9085019036601f830112610b0957600080fd5b813581811115610b1b57610b1b610a4c565b610b2d601f8201601f19168501610a8b565b91508082523684828501011115610b4357600080fd5b80848401858401376000908201840152918301919091525092915050565b634e487b7160e01b600052602160045260246000fd5b60ff60f81b8416815260006020848184015260606040840152835180606085015260005b81811015610bb757858101830151858201608001528201610b9b565b506000608082860101526080601f19601f83011685010192505050949350505050565b600060208284031215610bec57600080fd5b505191905056fea2646970667358221220b5c54c9146a1310894392de31a2a662cc09c474e75dd14ef74c4052388fd170d64736f6c63430008130033",
  "linkReferences": {},
  "deployedLinkReferences": {},
  "immutableReferences": {},
  "inputSourceName": "project/contracts/coti/MillionaireComparison.sol",
  "buildInfoId": "solc-0_8_19-92a9fd80a3258b427d13643ad5edb49f45656b45"
}